:100000000C9435000C945D000C945D000C945D0024
:100010000C945D000C945D000C945D000C945D00EC
:100020000C945D000C945D000C945D000C945D00DC
:100030000C945D000C945D000C945D000C945D00CC
:100040000C9473000C945D000C945A020C9496026C
:100050000C945D000C945D000C945D000C945D00AC
:100060000C945D000C945D00510311241FBECFEF72
:10007000D8E0DEBFCDBF11E0A0E0B1E0E6E9F7E0F7
:1000800002C005900D92AA31B107D9F711E0AAE19B
:10009000B1E001C01D92AA3CB107E1F710E0CAE649
:1000A000D0E004C02297FE010E94C503C836D107E4
:1000B000C9F70E9448010C94C9030C94000040E861
:1000C00055E260E070E083E291E00C94D10260E0E0
:1000D00071E083E291E00E94AA0168EE73E080E0A3
:1000E00090E00C94E7001F920F920FB60F9211242C
:1000F0002F933F938F939F93AF93BF9380911A0158
:1001000090911B01A0911C01B0911D013091220121
:10011000232F2D5F2D3720F40196A11DB11D05C0A1
:10012000232F2A570296A11DB11D209322018093EF
:100130001A0190931B01A0931C01B0931D018091A3
:100140001E0190911F01A0912001B0912101019603
:10015000A11DB11D80931E0190931F01A09320014A
:10016000B0932101BF91AF919F918F913F912F91BA
:100170000F900FBE0F901F9018950F931F939FB76E
:10018000F89400911E0110911F01209120013091DF
:10019000210186B5A89B06C08F3F21F00F5F1F4F3E
:1001A0002F4F3F4F9FBF322F212F102F0027080FB7
:1001B000111D211D311D42E0000F111F221F331F91
:1001C0004A95D1F7B801C9011F910F910895CF92B7
:1001D000DF92EF92FF92CF93DF936B017C010E943D
:1001E000BD00EB010EC00E94BD006C1B7D0B683E84
:1001F000734038F081E0C81AD108E108F108C8510D
:10020000DC4FC114D104E104F10469F7DF91CF910F
:10021000FF90EF90DF90CF900895789484B582603E
:1002200084BD84B5816084BD85B5826085BD85B59A
:10023000816085BDEEE6F0E0808181608083E1E849
:10024000F0E0108280818260808380818160808381
:10025000E0E8F0E0808181608083E1EBF0E0808184
:1002600084608083E0EBF0E0808181608083EAE756
:10027000F0E08081846080838081826080838081DF
:10028000816080838081806880831092C10008959E
:100290000E940D010E945F00CDE8D2E00E9467003D
:1002A0002097E1F30E948D02F9CFCF92DF92EF9277
:1002B000FF920F931F93CF93DF936C01EB017A01B1
:1002C000E60EF71E00E010E00BC06991D601ED913B
:1002D000FC910190F081E02DC6010995080F191FCE
:1002E000CE15DF0591F7C801DF91CF911F910F91D6
:1002F000FF90EF90DF90CF900895DB010D900020EC
:10030000E9F7AD0141505109461B570BDC01ED9156
:10031000FC910280F381E02D0994DC01ED91FC91C8
:100320000190F081E02D09940F931F93CF93DF93F9
:10033000EC016DE00E948D018C016AE0CE010E940B
:100340008D019C01200F311FC901DF91CF911F91B9
:100350000F9108950F931F93CF93DF93EC010E94A9
:100360007D018C01CE010E9494019801280F391F54
:10037000C901DF91CF911F910F910895FC018485F0
:100380009585FC01E05CFF4F20813181FC01EE5B33
:10039000FF4F80819181281B390B2F733327C901AF
:1003A0000895FC0184859585FC01E05CFF4F408148
:1003B0005181FC01EE5BFF4F2081318142175307D1
:1003C00041F00190F081E02DE80FF91F208130E02D
:1003D00002C02FEF3FEFC9010895FC018485958588
:1003E000FC01E05CFF4F40815181FC01EE5BFF4F5F
:1003F000208131814217530781F0A081B181A80F7C
:10040000B91F8C91208131812F5F3F4F2F7333278C
:1004100031832083282F30E002C02FEF3FEFC90146
:100420000895FC0186859785FC01E05CFF4FDC01A7
:10043000AE5BBF4F408151812D913C911197421786
:100440005307C1F70895CF93DF93FC018685978505
:10045000DC01A05CBF4F2D913C9111972F5F3F4F66
:100460002F733327EC01CE5BDF4F4881598124176E
:100470003507D9F30D90BC91A02DA80FB91F6C932F
:10048000A685B785A05CBF4F11963C932E93A68995
:10049000B7892C9181E090E0058C02C0880F991FEC
:1004A0000A94E2F7282B2C9381E090E0DF91CF9122
:1004B000089508951F920F920FB60F9211242F9353
:1004C0003F934F938F939F93EF93FF934091C60079
:1004D0008091C6019091C70101968F739927209151
:1004E000C8013091C9018217930759F0E091C60104
:1004F000F091C701EA57FE4F40839093C701809364
:10050000C601FF91EF919F918F914F913F912F9154
:100510000F900FBE0F901F90189583E291E00E94FC
:10052000BE01892B11F00C94590208951F920F926D
:100530000FB60F9211242F933F938F939F93EF93B6
:10054000FF932091820130918301809184019091E9
:1005500085012817390731F48091C1008F7D809380
:10056000C10014C0E0918401F0918501EE5BFE4F63
:100570002081809184019091850101968F73992744
:1005800090938501809384012093C600FF91EF91A1
:100590009F918F913F912F910F900FBE0F901F90C1
:1005A0001895CF92DF92EF92FF92CF93DF93EC01F9
:1005B0006A017B01411581EE580761057105F9F06B
:1005C000EC89FD8981E090E00E8C02C0880F991FB4
:1005D0000A94E2F7808360E079E08DE390E0A70180
:1005E00096010E94A10321503109410951095695F4
:1005F000479537952795211580E1380798F0EC89C4
:10060000FD89108260E874E88EE190E0A701960110
:100610000E94A1032150310941095109569547957E
:1006200037952795E889F9893083EA89FB89208302
:10063000EE89FF89408181E090E09C010A8C02C034
:10064000220F331F0A94E2F7422B4083EE89FF8981
:1006500040819C010B8C02C0220F331F0A94E2F7E9
:10066000422B4083EE89FF8940819C010C8C02C0A3
:10067000220F331F0A94E2F7422B4083EE89FF8951
:1006800020810D8C02C0880F991F0A94E2F7809593
:1006900082238083DF91CF91FF90EF90DF90CF9006
:1006A0000895109226011092250188EE93E0A0E0B3
:1006B000B0E08093270190932801A0932901B09383
:1006C0002A018DE091E0909324018093230186E834
:1006D00091E09093300180932F0182E491E0909318
:1006E00032018093310185EC90E090933401809346
:1006F000330184EC90E0909336018093350180ECD7
:1007000090E0909338018093370181EC90E09093D2
:100710003A018093390186EC90E090933C018093FC
:100720003B0184E080933D0183E080933E0187E0BC
:1007300080933F0185E08093400181E080934101F7
:100740000895A1E21A2EAA1BBB1BFD010DC0AA1F12
:10075000BB1FEE1FFF1FA217B307E407F50720F02A
:10076000A21BB30BE40BF50B661F771F881F991FA5
:100770001A9469F760957095809590959B01AC01EE
:10078000BD01CF010895EE0FFF1F0590F491E02DFC
:060790000994F894FFCF6C
:1007960048656C6C6F20506900000000002302550C
:0A07A60001BE01ED01D101110200B6
:00000001FF
